:020000040000FA
:020000000FD01F
:020002000000FC
:1000200002EE00F0380EEF6EE92A2B0EEF6EE92A91
:10003000940EEF6EE92ACF0EEF6EE92A290EEF6ECD
:10004000E92A02EE00F012EE00F0000EE8CFF0F127
:10005000E8CFF1F1E92AEFCFF0F1E9CFE1FFE106D6
:10006000000EE164E1622AEF00F0E1CF00F0F06100
:10007000F0632FEF00F0E1CFF1F1010EF127E9CFAE
:10008000E8FFF1C1E9FFE7CFEFFFEFCFF0F1E96E55
:060090002FEF00F0C5D7C0
:020000040030CA
:0100000000FF
:010001000CF2
:010002001EDF
:010003001EDE
:010005008179
:010006008178
:00000001FF
