:040000004CEF00F0D1
:0600080009824EED00F03C
:100018000980D8CF05F0E8CF06F0E0CF07F09EA022
:1000280013D09E908BA402D0010E01D0000EFF0ABF
:10003800036E034603468B500318FB0B03188B6EA5
:10004800F70ECF6E1F0ECE6EF0A01AD0030E046E00
:100058008A0E036E560EE82EFED7032EFCD7042E0A
:10006800FAD7F090CDB006D0F70ECF6E1F0ECE6E39
:10007800CD8006D08B94CD90000ECF6E000ECE6E44
:1000880007C0E0FF06C0E8FF05C0D8FF09901000D0
:10009800A3EF00F00600F2A413D0F294000E8DB086
:1000A800010E086E8DA202D08D8001D08D9008B00F
:1000B80002D08D9201D08D82670ED76E6A0ED66EF1
:1000C800F2A21DD0030E026E8A0E016E560EE82EA5
:1000D800FED7012EFCD7022EFAD7F292D5BE08D051
:1000E8008D808D92670ED76E6A0ED66ED58E07D02C
:1000F8008D908D92000ED76E000ED66ED59E099209
:100108001100F19E0F0EC16E9368969096928D80A5
:100118008D929494D08EF1849F90F09CF00EF26EA4
:10012800F0869D80860ED56E850ECD6E670ED76ED5
:100138006A0ED66EF70ECF6E1F0ECE6EFFD7086A08
:0A01480009900992000185EF00F014
:020000040020DA
:08000000FFFFFFFFFFFFFFFF00
:020000040030CA
:0E000000000C1E1EFF8181FF0FC00FE00F409D
:00000001FF
