:0400000007EF00F016
:100008005B82DAED06F027EF07F05950D8B41200FA
:10001800000E456E000E446E5950D8B456D0800E6E
:10002800526E3B0E536E450E546E000E0E6E960EBB
:100038000F6E430E106E52C011F053C012F054C030
:1000480013F016EC06F035D05950D8B434D052C05D
:1000580038F053C039F054C03AF0010ED6EC04F031
:10006800620E436E660EE82EFED7432EFCD752C0B2
:100078000AF053C00BF054C00CF09A0E0D6E590ED6
:100088000E6E3F0E0F6EF3EC03F00AC052F00BC079
:1000980053F00CC054F0000E0E6E960E0F6E430E09
:1000A800106E52C011F053C012F054C013F016EC89
:1000B80006F0D8A0C9D7444A452A45BEADD7455011
:1000C80004E10A0E445CD8A0A7D75950D8B412004E
:1000D80081EC07F0410E436EEE0EE82EFED7432E5C
:1000E800FCD700D0000E476E000E466E5950D8B4AB
:1000F80076D0800E556E3B0E566E450E576E000E2E
:100108000E6EC80E0F6E420E106E55C011F056C01E
:1001180012F057C013F016EC06F055D05950D8B469
:1001280054D055C00AF056C00BF057C00CF0000E62
:100138000D6E000E0E6E400E0F6EF3EC03F00AC04B
:1001480038F00BC039F00CC03AF0010ED6EC04F0D0
:10015800210E436E760EE82EFED7432EFCD700D034
:1001680055C038F056C039F057C03AF0010ED6ECF9
:1001780004F0210E436E760EE82EFED7432EFCD7F0
:1001880000D055C00AF056C00BF057C00CF09A0EBC
:100198000D6E590E0E6E3F0E0F6EF3EC03F00AC093
:1001A80055F00BC056F00CC057F0000E0E6EC80E7E
:1001B8000F6E420E106E55C011F056C012F057C0A7
:1001C80013F016EC06F0D8A0A9D7464A472A47BE2E
:1001D8008DD7475004E10A0E465CD8A087D75950FE
:1001E800D8B4120081EC07F0410E436EEE0EE82EF3
:1001F800FED7432EFCD700D0000E00016D6F5A0EBB
:100208006C6F000E6B6F0A0E6A6F030E696FE80E53
:10021800686F010E676FF40E666F000E056E0A0EAA
:10022800046E000E036E5A0E026E93EC05F002C0C7
:100238000AF003C00BF043EC07F00AC063F00BC0F0
:1002480064F00CC065F0140E0001606F6E0E616FF3
:100258003F0E626F000E496E000E486E49BE06D012
:1002680049505BE1140E485CD8B057D05950D8B407
:1002780054D068C00AF069C00BF043EC07F00AC01C
:100288004CF00BC04DF00CC04EF02ED05950D8B4E5
:1002980041D04CC038F04DC039F04EC03AF0010E94
:1002A800D6EC04F063C002F064C003F065C004F04B
:1002B8006DEC04F002C011F003C012F070EC07F00E
:1002C8004CC00AF04DC00BF04EC00CF060C00DF0F1
:1002D80061C00EF062C00FF0F3EC03F00AC04CF0FE
:1002E8000BC04DF00CC04EF066C00AF067C00BF0B2
:1002F80043EC07F00AC00EF00BC00FF00CC010F072
:100308004CC011F04DC012F04EC013F016EC06F0C0
:10031800D8A0BCD7484A492AA1D75950D8B4120006
:1003280081EC07F0410E436EEE0EE82EFED7432E09
:10033800FCD700D0030E00016D6FE80E6C6F000E45
:100348006B6F640E6A6F050E696FDC0E686F010EC5
:10035800676FF40E666F000E056E640E046E030E72
:10036800036EE80E026E93EC05F002C00AF003C0BB
:100378000BF043EC07F00AC063F00BC064F00CC04C
:1003880065F0660E0001606F860E616F3F0E626F4A
:10039800000E4B6E000E4A6E4BBE06D04B505BE112
:1003A8000A0E4A5CD8B057D05950D8B4120066C06B
:1003B8000AF067C00BF043EC07F00AC04FF00BC01F
:1003C80050F00CC051F02ED05950D8B412004FC084
:1003D80038F050C039F051C03AF0010ED6EC04F0B4
:1003E80063C002F064C003F065C004F06DEC04F073
:1003F80002C011F003C012F070EC07F04FC00AF011
:1004080050C00BF051C00CF060C00DF061C00EF090
:1004180062C00FF0F3EC03F00AC04FF00BC050F0CD
:100428000CC051F04FC00EF050C00FF051C010F08A
:1004380068C00AF069C00BF043EC07F00AC011F07D
:100448000BC012F00CC013F016EC06F0D8A0BCD705
:100458004A4A4B2AA1D75950D8B4120081EC07F068
:10046800410E436EEE0EE82EFED7432EFCD700D089
:1004780012002D50D96EDA6A010EDF6E2E50D96E39
:10048800DA6A000EDF6E000E1D6E2D0E1E6E310E26
:100498001F6E010E206E2AC002F02BC003F02CC084
:1004A80004F06DEC04F002502F6E0350306E316A88
:1004B800326A020ED8902F36303631363236E82E70
:1004C800F9D72FC011F030C012F031C013F032C08C
:1004D80014F02D50D96EDA6ADF50336E3350156E32
:1004E800166A176A186A88EC06F011C021F012C063
:1004F80022F013C023F014C024F0D5EC05F0FF0E51
:100508001D24346EFF0E1E20356EFF0E1F20366E22
:10051800FF0E2020376E3750361005E13504D8B06D
:1005280002D0345012002D50D96EDA6A040EDF6EF4
:100538002E50D96EDA6A010EDF6E000E1D6E2D0E7A
:100548001E6E310E1F6E010E206E2AC002F02BC0E7
:1005580003F02CC004F06DEC04F002502F6E035031
:10056800306E316A326A020ED8902F363036313604
:100578003236E82EF9D72FC011F030C012F031C052
:1005880013F032C014F02D50D96EDA6ADF50336E92
:100598003350156E166A176A186A88EC06F011C08F
:1005A80021F012C022F013C023F014C024F0D5ECBF
:1005B80005F0FF0E1D24346EFF0E1E20356EFF0E53
:1005C8001F20366EFF0E2020376E3750361003E19D
:1005D8003504D8A0A6D72D50D96EDA6A100EDF6E72
:1005E8002E50D96EDA6A020EDF6E000E1D6E2D0EC9
:1005F8001E6E310E1F6E010E206E2AC002F02BC037
:1006080003F02CC004F06DEC04F002502F6E035080
:10061800306E316A326A020ED8902F363036313653
:100628003236E82EF9D72FC011F030C012F031C0A1
:1006380013F032C014F02D50D96EDA6ADF50336EE1
:100648003350156E166A176A186A88EC06F011C0DE
:1006580021F012C022F013C023F014C024F0D5EC0E
:1006680005F0FF0E1D24346EFF0E1E20356EFF0EA2
:100678001F20366EFF0E2020376E3750361003E1EC
:100688003504D8A04ED7FF0E1200F00EF26EF00E11
:10069800F16E180EF06E060ED56E670ED76E6A0EE6
:1006A800D66E000E956E9368000E946E9690929A90
:1006B800898A00017A51FF0A8C6E7051D8B40DD026
:1006C800210E586E760EE82EFED7582EFCD700D095
:1006D800B3EC06F0000E0001706F09EC00F05FEC5F
:1006E80007F000017251D8B40DD0210E586E760E65
:1006F800E82EFED7582EFCD700D001EC07F0000EEC
:100708000001726F7151D8B40DD0210E586E760E5B
:10071800E82EFED7582EFCD700D050EC06F0000E7D
:100728000001716F5A04D8A426D07A29D8B41FD0F2
:10073800D8807A336F1F7A51FF0A8C6E000E756F5E
:10074800000E746F5A50D8B4B8D7070E586E7D0E85
:10075800E82EFED7582EFCD700F00001744B752BFD
:10076800EE0E745D020E7559D8B0A7D7EBD7010EFF
:10077800796F010E29D0020E5A18D8A42DD0800EF8
:100788007A19D8B41FD0D8907A377A51FF0A8C6E6C
:100798006F1F000E776F000E766F5A50D8B48DD742
:1007A800070E586E7D0EE82EFED7582EFCD700F0A7
:1007B8000001764B772BEE0E765D020E7759D8B096
:1007C8007CD7EBD77969020E786F000E5A6E000E4F
:1007D8006F6F000E736F71D7000E796F6ED70CC0F4
:1007E80010F0116A126A0B34103601E311801050B0
:1007F800136E1350D8A407D0000E0A6E000E0B6EAD
:10080800000E0C6E12000FC010F0116A126A0E343E
:10081800103601E311801050186E1850D8A407D074
:10082800000E0A6E000E0B6E000E0C6E12001850B1
:100838007B0F13260CC018F00F50181A800E1816CC
:100848000B8E0E8EFF0E0D16FF0E0E16000E0F16D7
:10085800000E146E000E156E000E166E070E176E43
:100868000AA006D00D5014260E5015220F5016223D
:10087800D8900C320B320A32D8900D360E360F361D
:10088800172EEED7090E176E0AA006D00D501426A3
:100898000E5015220F501622D8900C320B320A3205
:1008A800D890163215321432172EEED714C002F033
:1008B80015C003F016C004F013C005F018C006F008
:1008C8003CEC05F002C00AF003C00BF004C00CF0C9
:1008D800120004C006F0076A086A0334063601E30A
:1008E80007800650106E1050D8A409D0000E026E72
:1008F800000E036E000E046E000E056E1200170E39
:10090800066E02C007F003C008F004C009F006280C
:100918000A6E04D0D8900932083207320A2EFAD764
:1009280007500B6E038EFF0E0216FF0E0316000E05
:10093800041602500C6E03500D6E04500E6E0F6AB2
:100948008E0E105E10AE0DD01050800A8F0FD8A0FA
:10095800CDD7D8900F320E320D320C32103EF9D767
:100968000DD0170E106407D0C1D7D8900C360D36AD
:100978000E360F3610061050D8A4F7D70B50D8B43F
:1009880008D00F1E0E1E0D1E0C6C000E0D220E221E
:100998000F220CC002F00DC003F00EC004F00FC00F
:1009A80005F012003D6E38C02AF039C02BF03AC06D
:1009B8002CF03F0E2D6E400E2E6E3DEC02F03E6E7A
:1009C8003EC0CBFF3E503B6E3C6AD8903B363C362F
:1009D800020E3B24416E000E3C20426E3D04D8A41A
:1009E8001CD0949441C03BF042C03CF0D8903C32BB
:1009F8003B32D8903C323B323B50BE6E41C03BF05C
:100A0800030E3B163B3ABD503B18CF0B3B18BD6E4F
:100A1800BD50F00B0C09BD6E1FD0020E3D18D8A4B6
:100A28001200949241C03BF042C03CF0D8903C3256
:100A38003B32D8903C323B323B50BB6E41C03BF01E
:100A4800030E3B163B3ABA503B18CF0B3B18BA6E15
:100A5800BA50F00B0C09BA6E000ECC6E40C03BF0D9
:100A6800030E3B16CA50F80B3B10CA6ECA8412001C
:100A78000550D8B405D0025003100410D8A40CD0E7
:100A8800000E026E000E036E000E046E1200052AA0
:100A9800D890043203320232000E0214076E000EA0
:100AA8000314086EFE0E0414096E0750081009108E
:100AB800D8B40CD0ECD7052A010E0226000E03226A
:100AC800000E0422D890043203320232000E0214BF
:100AD800076E000E0314086EFF0E0414096E07500B
:100AE80008100910D8B406D0E6D70506D890023603
:100AF8000336043603BE03D0020E0560F6D705A000
:100B0800039ED8900532055004120650D8A4048ECE
:100B180002C002F003C003F004C004F01200000E8B
:100B2800076E05AE06D0046C051ED8B0052A010E66
:100B3800076E03AE06D0026C031ED8B0032A010E5E
:100B4800071A000E096E000E086E04500510D8B47E
:100B58001CD0010E066E04D0D89004360536062A3D
:100B680005AEFAD7D890083609360450025C05500D
:100B78000358D8A005D00450025E0550035A0880D7
:100B8800D89005320432062EEDD70750D8B404D0D9
:100B9800086C091ED8B0092A08C002F009C003F081
:100BA8001200000E256E000E266E000E276E000E37
:100BB800286E2150221023102410D8B42AD0010EF8
:100BC800296E06D0D8902136223623362436292A93
:100BD80024AEF8D7D8902536263627362836215021
:100BE8001D5C22501E5823501F5824502058D8A04E
:100BF80009D021501D5E22501E5A23501F5A2450DE
:100C0800205A2580D8902432233222322132292EAC
:100C1800E1D725C01DF026C01EF027C01FF028C050
:100C280020F0120010AE0FD0000E146E000E156EDC
:100C3800800E166E0E50145C0E6E0F5015580F6E07
:100C480010501658106E13AE0FD0000E146E000E12
:100C5800156E800E166E1150145C116E12501558D8
:100C6800126E13501658136E000E0E1A000E0F1A3D
:100C7800800E101A000E111A000E121A800E131A86
:100C880011500E5C12500F5813501058D8B002D0A3
:100C9800D8901200D88012005950D8A41200000130
:100CA8006E51D8A412008BBC03D0026A022A01D06C
:100CB800026A023A024602468B500218BF0B02181B
:100CC8008B6E5A04D8B404D0020E5A18D8A40AD08D
:100CD800000E00016F6F5AC078F0000E5A6E030EB6
:100CE800736F12005A50D8A4120000017805D8A4D6
:100CF80002D0020E05D0020E7819D8A402D0010E37
:100D08005A6E000E786F1200000E196E000E1A6EE1
:100D1800000E1B6E000E1C6E11A008D0155019266F
:100D280016501A2217501B2218501C22D89015361C
:100D3800163617361836D89014321332123211324A
:100D48001150121013101410D8A4E6D719C011F0BE
:100D58001AC012F01BC013F01CC014F01200595036
:100D6800D8B406D0000E596E8D90898AD59E12008F
:100D7800010E596E8D80899AD58E5A50D8B40ED0EE
:100D8800020E5A18D8B404D0000E036E020E03D017
:100D9800000E036E010E026E02C078F0020E000112
:100DA800736F000E5A6E000E6F6F12000600F2A4E9
:100DB80010D0F294670ED76E6A0ED66E8DB003D03F
:100DC800016A012A01D0016A8D500118FE0B011831
:100DD8008D6EF2A204D0F292010E0001726FF0A0A3
:100DE80004D0F090010E0001716FF0A204D0F092CF
:100DF800010E0001706F5B9211005950D8A41200C7
:100E080000016E51D8B404D0000E6E6F8B921200A0
:100E1800010E6E6F8B825A50D8B40ED0020E5A183B
:100E2800D8B404D0000E036E020E03D0000E036E79
:100E3800010E026E02C078F0010E736F000E5A6E3A
:100E4800000E6F6F12000E0EF66E0F0EF76E000E8C
:100E5800F86E0900F5CF78F00900F5CF79F00900B0
:100E6800F5CF7AF000EE60F0140EEE6AE806FDE1C8
:100E78005A6A596A5B905B92000149EF03F0000ED1
:100E88000D6E0BAE06D00A6C0B1ED8B00B2A010EE5
:100E98000D6E0AC002F00BC003F0046A8E0E056ED8
:100EA8000DC006F03CEC05F002C00AF003C00BF0E0
:100EB80004C00CF0120000016F51D8B40AD0000E23
:100EC800386E960E396E440E3A6E010ED6EC04F06A
:100ED800120081EC07F012000BD0070E136E7D0E86
:100EE800E82EFED7132EFCD700F01106D8A0120664
:100EF80011501210D8B41200F0D7000EBA6ECA946E
:090F0800000EBB6E12000101FF96
:020000040020DA
:08000000FFFFFFFFFFFFFFFF00
:020000040030CA
:0E000000000C1E1EFF8181FF0FC00FE00F409D
:00000001FF
