:020000040000FA
:020000000FD01F
:020002000000FC
:10002000F30E006E040E016E056A066A00AE1FEF45
:1000300000F0001E002A058006801FEF00F001AED0
:1000400027EF00F0011E012A057027EF00F0005095
:10005000026E036A080E046E0236033603AE35EFF5
:1000600000F00150032637EF00F00150035E03AEAD
:10007000028003BE0290042E2CEF00F003AE43EF8B
:1000800000F00150032605A048EF00F0021E022AEE
:0C00900006A04DEF00F0031E032AFFD76E
:020000040030CA
:0100000000FF
:010001000CF2
:010002001EDF
:010003001EDE
:010005008179
:010006008178
:00000001FF
