:0400000069EF04F0B0
:10080000002020202043454645542D4D47202020E0
:10081000200020204C61622E206465206D69637287
:100820006F200000000E956E9690969296948D948F
:1008300048EC04F0380E60EC04F00C0E60EC04F0B0
:10084000060E60EC04F0010E60EC04F0120012ECF5
:1008500004F0800E60EC04F0010E046E38EC04F03D
:10086000C00E60EC04F0120E046E38EC04F0FFD7FA
:1008700007D004C0F6FF0800F55057EC04F0042A36
:1008800004C0F6FF0800F5500009D8B41200F1D7F3
:10089000000E026E000E016E014A022A02BEFCD753
:1008A000E80E015C030E0258D8B01200F5D7036EB3
:1008B00003C08CFF8D808D8248EC04F08D92120075
:1008C000036E03C08CFF8D908D8248EC04F08D92F6
:1008D0001200000EF86E080EF76E000127EF04F00C
:020000040020DA
:08000000FFFFFFFFFFFFFFFF00
:020000040030CA
:0E000000000C1F1EFF8181FF0FC00FE00F409C
:00000001FF
